:020000020000FC
:100000003B9850D086D004D029D03AD05DD0FCCFD8
:100010008AD080ED90D087E08ED081E98CD095D0C9
:10002000ACD0089580D080ED86D080E084D085E388
:1000300082D083E380D080E17ED087D09ED00895A7
:1000400072D080ED78D084E076D089E074D086E0FC
:1000500072D082E270D079D090D0089564D080EDD3
:100060006AD080E068D071D05ED081ED64D071D06C
:10007000292F6FD0392F77D0492F67D07ED00895A0
:1000800052D080ED58D084E056D05FD04CD081ED76
:1000900052D05FD0592F5DD0692F65D0792F55D0C0
:1000A0006CD0089506E00093C20008E90093C100F7
:1000B00007E60093C40008950091C00007FF009177
:1000C000C6000093C60008950091C00005FFFCCF54
:1000D0002093C6000091C00005FFFCCF3093C600FE
:1000E0000091C00005FFFCCF4093C6000091C00006
:1000F00005FFFCCF5093C6000091C00005FFFCCF68
:100100006093C6000091C00005FFFCCF7093C6004D
:10011000089500E00093B9000CE00093B80004E0FB
:100120000093BC00089504EA0093BC000091BC0059
:1001300007FFFCCF08958093BB0004E80093BC0048
:100140000091BC0007FFFCCF089504E90093BC00B8
:10015000089504EC0093BC000091BC0007FFFCCFA5
:100160009091BB00089504E80093BC000091BC008E
:1001700007FFFCCF9091BB0008950FEF009385001F
:1001800001EB0093840011E01093160015E010932A
:10019000810001D0089516B310FFFDCF11E016BB0A
:1001A00010E010938100089501EE009385000CE7A4
:1001B0000093840011E01093160015E01093810065
:1001C00001D0089516B310FFE6CF11E016BB10E082
:0601D00010938100089568
:00000001FF
