:020000020000FC
:1000000050E03B986CD02ED060E50FEF07B908B9EF
:1000100003D014D00000FFCF2FD020EA35D020E04D
:1000200033D020E531D028EF2FD020ED2DD02FEA8E
:100030002BD025EC29D032D05CD0089547D01CD0ED
:1000400020EA22D0760F20E01FD0272F1DD026D007
:1000500013D021EA19D026D04093C600752F1ED0A8
:1000600048D0089500E00093B90008E40093B80078
:1000700004E00093BC00089504EA0093BC000091E2
:10008000BC0007FFFCCF08952093BB0004E8009359
:10009000BC000091BC0007FFFCCF089504E9009369
:1000A000BC00089504EC0093BC000091BC0007FF65
:1000B000FCCF4091BB00089504E80093BC00009180
:1000C000BC0007FFFCCF4091BB00089560E5089598
:1000D0000091C00007FFFCCF7091C600089506E0B4
:1000E0000093C20008E90093C10007E60093C40032
:1000F00008950FEF0093850001EB0093840011E059
:100100001093160015E01093810001D0089516B3E6
:1001100010FFFDCF11E016BB10E010938100089591
:100120000FEF0093850007EF0093840011E0109318
:10013000160015E01093810001D0089516B310FF4A
:0E014000E6CF11E016BB10E010938100089589
:00000001FF
