:100000000C945A000C9477000C9477000C947700B1
:100010000C9477000C9477000C9477000C94770084
:100020000C9477000C9477000C9477000C94770074
:100030000C9477000C9477000C9477000C94770064
:100040000C9477000C9477000C9477000C94770054
:100050000C9477000C9477000C9477000C94770044
:100060000C9477000C9477000C9477000C94770034
:100070000C9477000C9477000C9477000C94770024
:100080000C9477000C9477000C9477000C94770014
:100090000C9477000C9477000C9477000C94770004
:1000A0000C9477000C9477000C9477000C947700F4
:1000B0000C94770011241FBECFEFD8E0DEBFCDBF78
:1000C00011E0A0E0B1E0E6EBF1E002C005900D9296
:1000D000AA30B107D9F721E0AAE0B1E001C01D9232
:1000E000AA30B207E1F70E94CA000C94D9000C9420
:1000F0000000E0E0F1E078E1862F761B63E0869F68
:10010000802D68E0869F802D4191549AC8E0441F5D
:1001100078F05C9A8A9501F100005C98CA95B1F07C
:100120000000000000000000441F08F0F2CF0000B3
:100130005C9A8A9589F0CA9559F000000000000089
:100140005C9800000000441F90F3E3CF4191DECFA4
:10015000000041915C98DACF5C9863E0769F68E09C
:10016000702D769F812D702D711903C00000000045
:1001700000005C9A0000A0E000005C980000000015
:10018000000000007A957A13F1CF8A9509F0F1CF3B
:100190000895089563E080E091E00E9479002FE3E4
:1001A0008DE093E0215080409040E1F700C00000D6
:0601B000F1CFF894FFCF2F
:0A01B6000A0A0A8080000055550077
:00000001FF
