:100000000C945A000C9477000C9477000C947700B1
:100010000C9477000C9477000C9477000C94770084
:100020000C9477000C9477000C9477000C94770074
:100030000C9477000C9477000C9477000C94770064
:100040000C9477000C9477000C9477000C94770054
:100050000C9477000C9477000C9477000C94770044
:100060000C9477000C9477000C9477000C94770034
:100070000C9477000C9477000C9477000C94770024
:100080000C9477000C9477000C9477000C94770014
:100090000C9477000C9477000C9477000C94770004
:1000A0000C9477000C9477000C9477000C947700F4
:1000B0000C94770011241FBECFEFD8E0DEBFCDBF78
:1000C00011E0A0E0B1E0E8E7F1E002C005900D9298
:1000D000AA30B107D9F721E0AAE0B1E001C01D9232
:1000E000AA30B207E1F70E94A6000C94BA000C9463
:1000F0000000E0E0F1E060E074E088E14191C8E0F8
:10010000441F78F075B98A9501F1000065B9CA9568
:10011000B1F00000000000000000441F08F0F2CF22
:10012000000075B98A9589F0CA9559F00000000061
:10013000000065B900000000441F90F3E3CF419137
:10014000DECF000041916BB9DACF08958FEF8AB905
:1001500084B98BB969E070E080E091E00E94790099
:100160002FE786E998E9215080409040E1F700C0F0
:080170000000F0CFF894FFCF6E
:0A017800FF00000000000000FF007F
:00000001FF
