:100000000C945A000C946C000C946C000C946C00D2
:100010000C946C000C94F7000C946C000C946C0025
:100020000C946C000C946C000C946C000C94790093
:100030000C946C000C946C000C946C000C946C0090
:100040000C946C000C946C000C946C000C946C0080
:100050000C946C000C946C000C946C000C946C0070
:100060000C946C000C946C000C946C000C946C0060
:100070000C946C000C946C000C946C000C946C0050
:100080000C946C000C946C000C946C000C946C0040
:100090000C946C000C946C000C946C000C946C0030
:1000A0000C946C000C946C000C946C000C946C0020
:1000B0000C946C0011241FBECFEFD8E0DEBFCDBF83
:1000C00021E0A0E0B1E001C01D92A330B207E1F74A
:1000D0000E94EA000C9421010C940000E8E6F0E094
:1000E000808184608083EDE6F0E08081836080839E
:1000F00008951F920F920FB60F9211240F900FBE0A
:100100000F901F901895E0E8F0E020812083E8E848
:10011000F0E080819181822B91838083E1E8F0E09F
:10012000808189608083EFE6F0E080818260808357
:10013000789408951092890010928800109280009F
:100140001092810008951092020188E090E031E061
:1001500030993093020120910201213029F420913D
:10016000010121602093010120910101220F2093C0
:10017000010120910001211101C0FFCF1092000167
:1001800010920201019721F708951092020188E070
:1001900090E021E03091010137FD20930201309180
:1001A0000201313011F4429A01C0429810920201CA
:1001B00030910001311101C0FFCF10920001019771
:1001C00049F7429A80910001811101C0FFCF10923E
:1001D000000108958AB18AB978940E946E008091D6
:1001E00001018F5F809301010E94C500F8CF1F922B
:1001F0000F920FB60F9211242F933F934F935F935B
:100200006F937F938F939F93AF93BF93EF93FF93DE
:100210000E9483000E94A3000E94C5000E949A00D1
:10022000FF91EF91BF91AF919F918F917F916F91CE
:100230005F914F913F912F910F900FBE0F901F90A4
:060240001895F894FFCFB1
:00000001FF
