S0170000536F6674776172655F554152545F432E7372656385
S11300000C945A000C946C000C946C000C946C00CE
S11300100C946C000C9418010C946C000C946C00FF
S11300200C946C000C946C000C946C000C94800088
S11300300C946C000C946C000C946C000C946C008C
S11300400C946C000C946C000C946C000C946C007C
S11300500C946C000C946C000C946C000C946C006C
S11300600C946C000C946C000C946C000C946C005C
S11300700C946C000C946C000C946C000C946C004C
S11300800C946C000C946C000C946C000C946C003C
S11300900C946C000C946C000C946C000C946C002C
S11300A00C946C000C946C000C946C000C946C001C
S11300B00C946C0011241FBECFEFD8E0DEBFCDBF7F
S11300C021E0A0E0B1E001C01D92A330B207E1F746
S11300D00E9479000C944C010C940000E8E6F0E0D6
S11300E0808184608083EDE6F0E08081816080839C
S11300F0089582E08BB98AB978940E946E00FFCF8C
S11301001F920F920FB60F9211248F9380910001CA
S11301108F5F809300018F910F900FBE0F901F90FF
S11301201895109285001092840083EA90E29093CF
S11301308900809388001092800089E88093810070
S113014082E080936F007894089510928900109251
S1130150880010928000109281000895809100011F
S11301608823E1F31092000108951092020120E027
S113017030E01DC0309B03C081E080930201809178
S11301800201813029F48091010181608093010191
S113019080910101880F80930101809100018823DF
S11301A0E1F310920001109202012F5F3F4F2830BB
S11301B0310504F3089588B18B7F88B980910001DB
S11301C08823E1F31092000108951092020120E0C7
S11301D030E021C08091010188231CF481E08093E8
S11301E0020180910201813021F488B1846088B9D0
S11301F003C088B18B7F88B91092020180910101FC
S1130200880F80930101809100018823E1F310920B
S113021000012F5F3F4F28303105E4F288B184603C
S113022088B9809100018823E1F3109200010895B8
S11302301F920F920FB60F9211242F933F934F9357
S11302405F936F937F938F939F93AF93BF93EF933A
S1130250FF931092680010926D000E9491000E941A
S1130260AE000E94B5000E94AE000E94DB000E9416
S1130270E5000E94A500FF91EF91BF91AF919F917E
S11302808F917F916F915F914F913F912F910F903B
S10F02900FBE0F901F901895F894FFCF3C
S9030000FC
